{"abi":[{"type":"function","name":"commentIdIncrement","inputs":[],"outputs":[{"name":"","type":"uint256","internalType":"uint256"}],"stateMutability":"view"},{"type":"function","name":"comments","inputs":[{"name":"","type":"uint256","internalType":"uint256"}],"outputs":[{"name":"owner","type":"address","internalType":"address"},{"name":"id","type":"uint256","internalType":"uint256"},{"name":"title","type":"string","internalType":"string"},{"name":"description","type":"string","internalType":"string"},{"name":"spoil","type":"bool","internalType":"bool"},{"name":"likes","type":"uint256","internalType":"uint256"},{"name":"timestamp","type":"uint256","internalType":"uint256"}],"stateMutability":"view"},{"type":"function","name":"compareStringsbyBytes","inputs":[{"name":"s1","type":"string","internalType":"string"},{"name":"s2","type":"string","internalType":"string"}],"outputs":[{"name":"","type":"bool","internalType":"bool"}],"stateMutability":"pure"},{"type":"function","name":"createComment","inputs":[{"name":"_postId","type":"uint256","internalType":"uint256"},{"name":"_title","type":"string","internalType":"string"},{"name":"_description","type":"string","internalType":"string"},{"name":"_spoil","type":"bool","internalType":"bool"}],"outputs":[{"name":"","type":"uint256","internalType":"uint256"}],"stateMutability":"nonpayable"},{"type":"function","name":"createPoll","inputs":[{"name":"_postId","type":"uint256","internalType":"uint256"},{"name":"_question","type":"string","internalType":"string"},{"name":"_option1","type":"string","internalType":"string"},{"name":"_option2","type":"string","internalType":"string"}],"outputs":[{"name":"","type":"uint256","internalType":"uint256"}],"stateMutability":"nonpayable"},{"type":"function","name":"createPost","inputs":[{"name":"_title","type":"string","internalType":"string"},{"name":"_description","type":"string","internalType":"string"},{"name":"_spoil","type":"bool","internalType":"bool"}],"outputs":[{"name":"","type":"uint256","internalType":"uint256"}],"stateMutability":"nonpayable"},{"type":"function","name":"downVoteComment","inputs":[{"name":"_commentId","type":"uint256","internalType":"uint256"}],"outputs":[],"stateMutability":"nonpayable"},{"type":"function","name":"downVotePost","inputs":[{"name":"_postId","type":"uint256","internalType":"uint256"}],"outputs":[],"stateMutability":"nonpayable"},{"type":"function","name":"getComment","inputs":[{"name":"_commentId","type":"uint256","internalType":"uint256"}],"outputs":[{"name":"","type":"tuple","internalType":"struct Forum.Comment","components":[{"name":"owner","type":"address","internalType":"address"},{"name":"id","type":"uint256","internalType":"uint256"},{"name":"title","type":"string","internalType":"string"},{"name":"description","type":"string","internalType":"string"},{"name":"spoil","type":"bool","internalType":"bool"},{"name":"likes","type":"uint256","internalType":"uint256"},{"name":"timestamp","type":"uint256","internalType":"uint256"}]}],"stateMutability":"view"},{"type":"function","name":"getCommentsFromPost","inputs":[{"name":"_postId","type":"uint256","internalType":"uint256"}],"outputs":[{"name":"","type":"uint256[]","internalType":"uint256[]"}],"stateMutability":"view"},{"type":"function","name":"getPoll","inputs":[{"name":"_pollId","type":"uint256","internalType":"uint256"}],"outputs":[{"name":"","type":"tuple","internalType":"struct Forum.Poll","components":[{"name":"id","type":"uint256","internalType":"uint256"},{"name":"question","type":"string","internalType":"string"},{"name":"option1","type":"string","internalType":"string"},{"name":"option2","type":"string","internalType":"string"},{"name":"option1Counter","type":"uint256","internalType":"uint256"},{"name":"option2Counter","type":"uint256","internalType":"uint256"}]}],"stateMutability":"view"},{"type":"function","name":"getPollFromPost","inputs":[{"name":"_postId","type":"uint256","internalType":"uint256"}],"outputs":[{"name":"","type":"tuple","internalType":"struct Forum.Poll","components":[{"name":"id","type":"uint256","internalType":"uint256"},{"name":"question","type":"string","internalType":"string"},{"name":"option1","type":"string","internalType":"string"},{"name":"option2","type":"string","internalType":"string"},{"name":"option1Counter","type":"uint256","internalType":"uint256"},{"name":"option2Counter","type":"uint256","internalType":"uint256"}]}],"stateMutability":"view"},{"type":"function","name":"getPost","inputs":[{"name":"_postId","type":"uint256","internalType":"uint256"}],"outputs":[{"name":"","type":"tuple","internalType":"struct Forum.Post","components":[{"name":"owner","type":"address","internalType":"address"},{"name":"id","type":"uint256","internalType":"uint256"},{"name":"title","type":"string","internalType":"string"},{"name":"description","type":"string","internalType":"string"},{"name":"spoil","type":"bool","internalType":"bool"},{"name":"likes","type":"uint256","internalType":"uint256"},{"name":"timestamp","type":"uint256","internalType":"uint256"}]}],"stateMutability":"view"},{"type":"function","name":"getPostsFromAddress","inputs":[{"name":"_user","type":"address","internalType":"address"}],"outputs":[{"name":"","type":"uint256[]","internalType":"uint256[]"}],"stateMutability":"view"},{"type":"function","name":"pollIdIncrement","inputs":[],"outputs":[{"name":"","type":"uint256","internalType":"uint256"}],"stateMutability":"view"},{"type":"function","name":"polls","inputs":[{"name":"","type":"uint256","internalType":"uint256"}],"outputs":[{"name":"id","type":"uint256","internalType":"uint256"},{"name":"question","type":"string","internalType":"string"},{"name":"option1","type":"string","internalType":"string"},{"name":"option2","type":"string","internalType":"string"},{"name":"option1Counter","type":"uint256","internalType":"uint256"},{"name":"option2Counter","type":"uint256","internalType":"uint256"}],"stateMutability":"view"},{"type":"function","name":"postIdIncrement","inputs":[],"outputs":[{"name":"","type":"uint256","internalType":"uint256"}],"stateMutability":"view"},{"type":"function","name":"postToPoll","inputs":[{"name":"","type":"uint256","internalType":"uint256"}],"outputs":[{"name":"","type":"uint256","internalType":"uint256"}],"stateMutability":"view"},{"type":"function","name":"posts","inputs":[{"name":"","type":"uint256","internalType":"uint256"}],"outputs":[{"name":"owner","type":"address","internalType":"address"},{"name":"id","type":"uint256","internalType":"uint256"},{"name":"title","type":"string","internalType":"string"},{"name":"description","type":"string","internalType":"string"},{"name":"spoil","type":"bool","internalType":"bool"},{"name":"likes","type":"uint256","internalType":"uint256"},{"name":"timestamp","type":"uint256","internalType":"uint256"}],"stateMutability":"view"},{"type":"function","name":"upVoteComment","inputs":[{"name":"_commentId","type":"uint256","internalType":"uint256"}],"outputs":[],"stateMutability":"nonpayable"},{"type":"function","name":"upVotePollOption","inputs":[{"name":"_postId","type":"uint256","internalType":"uint256"},{"name":"option","type":"string","internalType":"string"}],"outputs":[],"stateMutability":"nonpayable"},{"type":"function","name":"upVotePost","inputs":[{"name":"_postId","type":"uint256","internalType":"uint256"}],"outputs":[],"stateMutability":"nonpayable"},{"type":"event","name":"PostSubmitted","inputs":[{"name":"userAddress","type":"address","indexed":true,"internalType":"address"},{"name":"post","type":"tuple","indexed":false,"internalType":"struct Forum.Post","components":[{"name":"owner","type":"address","internalType":"address"},{"name":"id","type":"uint256","internalType":"uint256"},{"name":"title","type":"string","internalType":"string"},{"name":"description","type":"string","internalType":"string"},{"name":"spoil","type":"bool","internalType":"bool"},{"name":"likes","type":"uint256","internalType":"uint256"},{"name":"timestamp","type":"uint256","internalType":"uint256"}]}],"anonymous":false}],"bytecode":{"object":"0x60806040526001600055600180556001600255348015601d57600080fd5b50611d2b8061002d6000396000f3fe608060405234801561001057600080fd5b50600436106101425760003560e01c80635fd8cf12116100b85780638ebb4c151161007c5780638ebb4c15146102b9578063ac2f0074146102cc578063bc8fd685146102f1578063c250bd8114610304578063c60fa0fa14610317578063e9a734ff1461032a57600080fd5b80635fd8cf12146102575780636cc3f3c6146102605780637e9545b41461028057806387bcfd68146102935780638e07bba2146102a657600080fd5b806321828f821161010a57806321828f82146101e257806324844ea3146101f557806328fba232146102085780633ceb7c861461021b57806340288e1c1461022457806340731c241461024457600080fd5b80630800e300146101475780630b1e7f83146101705780630e98745e14610196578063138c40d1146101ad5780631a8cbcaa146101c2575b600080fd5b61015a6101553660046114c0565b61034d565b60405161016791906115a0565b60405180910390f35b61018361017e3660046114c0565b610577565b60405161016797969594939291906115ba565b61019f60025481565b604051908152602001610167565b6101c06101bb3660046114c0565b6106d2565b005b6101d56101d03660046114c0565b6107a6565b6040516101679190611613565b6101c06101f03660046114c0565b610a21565b6101c06102033660046114c0565b610aae565b6101d56102163660046114c0565b610aef565b61019f60015481565b6102376102323660046114c0565b610b6b565b6040516101679190611695565b61015a6102523660046114c0565b610bef565b61019f60005481565b61019f61026e3660046114c0565b60076020526000908152604090205481565b61019f61028e366004611790565b610ca6565b61019f6102a1366004611811565b610de7565b6101c06102b43660046114c0565b610eee565b6101836102c73660046114c0565b610f2f565b6102df6102da3660046114c0565b610f61565b604051610167969594939291906118ac565b6101c06102ff366004611901565b61112e565b61019f610312366004611947565b6112fc565b6102376103253660046119be565b6113fc565b61033d6103383660046119e7565b611466565b6040519015158152602001610167565b6103986040518060e0016040528060006001600160a01b0316815260200160008152602001606081526020016060815260200160001515815260200160008152602001600081525090565b6002548211156103ef5760405162461bcd60e51b815260206004820152601760248201527f436f6d6d656e7420646f6573206e6f742065786973742100000000000000000060448201526064015b60405180910390fd5b600082815260066020908152604091829020825160e08101845281546001600160a01b03168152600182015492810192909252600281018054929391929184019161043990611a38565b80601f016020809104026020016040519081016040528092919081815260200182805461046590611a38565b80156104b25780601f10610487576101008083540402835291602001916104b2565b820191906000526020600020905b81548152906001019060200180831161049557829003601f168201915b505050505081526020016003820180546104cb90611a38565b80601f01602080910402602001604051908101604052809291908181526020018280546104f790611a38565b80156105445780601f1061051957610100808354040283529160200191610544565b820191906000526020600020905b81548152906001019060200180831161052757829003601f168201915b5050509183525050600482015460ff16151560208201526005820154604082015260069091015460609091015292915050565b6004602052600090815260409020805460018201546002830180546001600160a01b039093169391926105a990611a38565b80601f01602080910402602001604051908101604052809291908181526020018280546105d590611a38565b80156106225780601f106105f757610100808354040283529160200191610622565b820191906000526020600020905b81548152906001019060200180831161060557829003601f168201915b50505050509080600301805461063790611a38565b80601f016020809104026020016040519081016040528092919081815260200182805461066390611a38565b80156106b05780601f10610685576101008083540402835291602001916106b0565b820191906000526020600020905b81548152906001019060200180831161069357829003601f168201915b5050505060048301546005840154600690940154929360ff9091169290915087565b6002548111156106f45760405162461bcd60e51b81526004016103e690611a72565b60008181526006602052604090206005810154610712906001611ab6565b60058201556000828152600660205260409020815481546001600160a01b0319166001600160a01b0390911617815560018083015490820155819060028082019061075f90840182611b18565b5060038181019061077290840182611b18565b50600482810154908201805460ff191660ff9092161515919091179055600580830154908201556006918201549101555050565b6107df6040518060c001604052806000815260200160608152602001606081526020016060815260200160008152602001600081525090565b6001548211156108285760405162461bcd60e51b8152602060048201526014602482015273506f6c6c20646f6573206e6f742065786973742160601b60448201526064016103e6565b600560008381526020019081526020016000206040518060c00160405290816000820154815260200160018201805461086090611a38565b80601f016020809104026020016040519081016040528092919081815260200182805461088c90611a38565b80156108d95780601f106108ae576101008083540402835291602001916108d9565b820191906000526020600020905b8154815290600101906020018083116108bc57829003601f168201915b505050505081526020016002820180546108f290611a38565b80601f016020809104026020016040519081016040528092919081815260200182805461091e90611a38565b801561096b5780601f106109405761010080835404028352916020019161096b565b820191906000526020600020905b81548152906001019060200180831161094e57829003601f168201915b5050505050815260200160038201805461098490611a38565b80601f01602080910402602001604051908101604052809291908181526020018280546109b090611a38565b80156109fd5780601f106109d2576101008083540402835291602001916109fd565b820191906000526020600020905b8154815290600101906020018083116109e057829003601f168201915b50505050508152602001600482015481526020016005820154815250509050919050565b600054811115610a435760405162461bcd60e51b81526004016103e690611a72565b60008181526004602052604090206005810154610a61906001611ab6565b60058201556000828152600460205260409020815481546001600160a01b0319166001600160a01b0390911617815560018083015490820155819060028082019061075f90840182611b18565b600054811115610ad05760405162461bcd60e51b81526004016103e690611a72565b60008181526004602052604090206005810154610a6190600190611bf7565b610b286040518060c001604052806000815260200160608152602001606081526020016060815260200160008152602001600081525090565b600054821115610b4a5760405162461bcd60e51b81526004016103e690611a72565b60008281526007602052604081205490610b63826107a6565b949350505050565b6060600054821115610b8f5760405162461bcd60e51b81526004016103e690611a72565b60008281526008602090815260409182902080548351818402810184019094528084529091830182828015610be357602002820191906000526020600020905b815481526020019060010190808311610bcf575b50505050509050919050565b610c3a6040518060e0016040528060006001600160a01b0316815260200160008152602001606081526020016060815260200160001515815260200160008152602001600081525090565b600054821115610c5c5760405162461bcd60e51b81526004016103e690611a72565b600082815260046020908152604091829020825160e08101845281546001600160a01b03168152600182015492810192909252600281018054929391929184019161043990611a38565b60008054851115610cc95760405162461bcd60e51b81526004016103e690611a72565b6002805460009182610cda83611c0a565b909155506040805160e08101825233815260208082018481528284018a8152606084018a90528815156080850152600060a085018190524260c0860152868152600690935293909120825181546001600160a01b0319166001600160a01b03909116178155905160018201559151929350916002820190610d5b9082611c23565b5060608201516003820190610d709082611c23565b50608082015160048201805460ff191691151591909117905560a0820151600582015560c0909101516006909101556000958652600860209081526040808820805460018181018355918a52838a2001849055338952600a8352908820805491820181558852962090950185905550929392505050565b60008054851115610e0a5760405162461bcd60e51b81526004016103e690611a72565b6001805460009182610e1b83611c0a565b909155506040805160c08101825282815260208082018981528284018990526060830188905260006080840181905260a084018190528581526005909252929020815181559151929350916001820190610e759082611c23565b5060408201516002820190610e8a9082611c23565b5060608201516003820190610e9f9082611c23565b506080820151600482015560a0909101516005909101556000868152600760209081526040808320849055338352600a8252822080546001810182559083529120018190559050949350505050565b600254811115610f105760405162461bcd60e51b81526004016103e690611a72565b6000818152600660205260409020600581015461071290600190611bf7565b6006602052600090815260409020805460018201546002830180546001600160a01b039093169391926105a990611a38565b60056020526000908152604090208054600182018054919291610f8390611a38565b80601f0160208091040260200160405190810160405280929190818152602001828054610faf90611a38565b8015610ffc5780601f10610fd157610100808354040283529160200191610ffc565b820191906000526020600020905b815481529060010190602001808311610fdf57829003601f168201915b50505050509080600201805461101190611a38565b80601f016020809104026020016040519081016040528092919081815260200182805461103d90611a38565b801561108a5780601f1061105f5761010080835404028352916020019161108a565b820191906000526020600020905b81548152906001019060200180831161106d57829003601f168201915b50505050509080600301805461109f90611a38565b80601f01602080910402602001604051908101604052809291908181526020018280546110cb90611a38565b80156111185780601f106110ed57610100808354040283529160200191611118565b820191906000526020600020905b8154815290600101906020018083116110fb57829003601f168201915b5050505050908060040154908060050154905086565b6000548211156111505760405162461bcd60e51b81526004016103e690611a72565b600082815260076020908152604080832054835260059091529020600281018054611203919061117f90611a38565b80601f01602080910402602001604051908101604052809291908181526020018280546111ab90611a38565b80156111f85780601f106111cd576101008083540402835291602001916111f8565b820191906000526020600020905b8154815290600101906020018083116111db57829003601f168201915b505050505083611466565b156112245760048101805490600061121a83611c0a565b919050555061128a565b61123681600301805461117f90611a38565b1561124d5760058101805490600061121a83611c0a565b60405162461bcd60e51b81526020600482015260126024820152712737ba1030903b30b634b21037b83a34b7b760711b60448201526064016103e6565b6000838152600760209081526040808320548352600590915290208154815581906001808201906112bd90840182611b18565b506002818101906112d090840182611b18565b506003818101906112e390840182611b18565b5060048281015490820155600591820154910155505050565b600080548190818061130d83611c0a565b909155506040805160e08101825233815260208082018481528284018a8152606084018a90528815156080850152600060a085018190524260c0860152868152600490935293909120825181546001600160a01b0319166001600160a01b0390911617815590516001820155915192935091600282019061138e9082611c23565b50606082015160038201906113a39082611c23565b50608082015160048201805460ff191691151591909117905560a0820151600582015560c09091015160069091015533600090815260036020908152604082208054600181018255908352912001819055949350505050565b6001600160a01b038116600090815260036020908152604091829020805483518184028101840190945280845260609392830182828015610be35760200282019190600052602060002090815481526020019060010190808311610bcf5750505050509050919050565b6000816040516020016114799190611cd9565b60405160208183030381529060405280519060200120836040516020016114a09190611cd9565b604051602081830303815290604052805190602001201490505b92915050565b6000602082840312156114d257600080fd5b5035919050565b60005b838110156114f45781810151838201526020016114dc565b50506000910152565b600081518084526115158160208601602086016114d9565b601f01601f19169290920160200192915050565b60018060a01b038151168252602081015160208301526000604082015160e0604085015261155a60e08501826114fd565b90506060830151848203606086015261157382826114fd565b91505060808301511515608085015260a083015160a085015260c083015160c08501528091505092915050565b6020815260006115b36020830184611529565b9392505050565b60018060a01b038816815286602082015260e0604082015260006115e160e08301886114fd565b82810360608401526115f381886114fd565b9515156080840152505060a081019290925260c090910152949350505050565b60208152815160208201526000602083015160c0604084015261163960e08401826114fd565b90506040840151601f1984830301606085015261165682826114fd565b9150506060840151601f1984830301608085015261167482826114fd565b915050608084015160a084015260a084015160c08401528091505092915050565b602080825282518282018190526000918401906040840190835b818110156116cd5783518352602093840193909201916001016116af565b509095945050505050565b634e487b7160e01b600052604160045260246000fd5b600082601f8301126116ff57600080fd5b81356001600160401b03811115611718576117186116d8565b604051601f8201601f19908116603f011681016001600160401b0381118282101715611746576117466116d8565b60405281815283820160200185101561175e57600080fd5b816020850160208301376000918101602001919091529392505050565b8035801515811461178b57600080fd5b919050565b600080600080608085870312156117a657600080fd5b8435935060208501356001600160401b038111156117c357600080fd5b6117cf878288016116ee565b93505060408501356001600160401b038111156117eb57600080fd5b6117f7878288016116ee565b9250506118066060860161177b565b905092959194509250565b6000806000806080858703121561182757600080fd5b8435935060208501356001600160401b0381111561184457600080fd5b611850878288016116ee565b93505060408501356001600160401b0381111561186c57600080fd5b611878878288016116ee565b92505060608501356001600160401b0381111561189457600080fd5b6118a0878288016116ee565b91505092959194509250565b86815260c0602082015260006118c560c08301886114fd565b82810360408401526118d781886114fd565b905082810360608401526118eb81876114fd565b6080840195909552505060a00152949350505050565b6000806040838503121561191457600080fd5b8235915060208301356001600160401b0381111561193157600080fd5b61193d858286016116ee565b9150509250929050565b60008060006060848603121561195c57600080fd5b83356001600160401b0381111561197257600080fd5b61197e868287016116ee565b93505060208401356001600160401b0381111561199a57600080fd5b6119a6868287016116ee565b9250506119b56040850161177b565b90509250925092565b6000602082840312156119d057600080fd5b81356001600160a01b03811681146115b357600080fd5b600080604083850312156119fa57600080fd5b82356001600160401b03811115611a1057600080fd5b611a1c858286016116ee565b92505060208301356001600160401b0381111561193157600080fd5b600181811c90821680611a4c57607f821691505b602082108103611a6c57634e487b7160e01b600052602260045260246000fd5b50919050565b602080825260149082015273506f737420646f6573206e6f742065786973742160601b604082015260600190565b634e487b7160e01b600052601160045260246000fd5b808201808211156114ba576114ba611aa0565b601f821115611b1357806000526020600020601f840160051c81016020851015611af05750805b601f840160051c820191505b81811015611b105760008155600101611afc565b50505b505050565b818103611b23575050565b611b2d8254611a38565b6001600160401b03811115611b4457611b446116d8565b611b5881611b528454611a38565b84611ac9565b6000601f821160018114611b8f5760008315611b745750848201545b600184901b600019600386901b1c198216175b855550611b10565b600085815260209020601f19841690600086815260209020845b83811015611bc95782860154825560019586019590910190602001611ba9565b5085831015611be75781850154600019600388901b60f8161c191681555b5050505050600190811b01905550565b818103818111156114ba576114ba611aa0565b600060018201611c1c57611c1c611aa0565b5060010190565b81516001600160401b03811115611c3c57611c3c6116d8565b611c4a81611b528454611a38565b6020601f821160018114611c7c5760008315611b74575081850151600184901b600019600386901b1c19821617611b87565b600084815260208120601f198516915b82811015611cac5787850151825560209485019460019092019101611c8c565b5084821015611cca5786840151600019600387901b60f8161c191681555b50505050600190811b01905550565b60008251611ceb8184602087016114d9565b919091019291505056fea2646970667358221220cef6ad0229e993841a1366ac71cf48de2a05b6bcd4b0281431cfced6e8b40bfd64736f6c634300081b0033","linkReferences":{}},"methodIdentifiers":{"commentIdIncrement()":"0e98745e","comments(uint256)":"8ebb4c15","compareStringsbyBytes(string,string)":"e9a734ff","createComment(uint256,string,string,bool)":"7e9545b4","createPoll(uint256,string,string,string)":"87bcfd68","createPost(string,string,bool)":"c250bd81","downVoteComment(uint256)":"8e07bba2","downVotePost(uint256)":"24844ea3","getComment(uint256)":"0800e300","getCommentsFromPost(uint256)":"40288e1c","getPoll(uint256)":"1a8cbcaa","getPollFromPost(uint256)":"28fba232","getPost(uint256)":"40731c24","getPostsFromAddress(address)":"c60fa0fa","pollIdIncrement()":"3ceb7c86","polls(uint256)":"ac2f0074","postIdIncrement()":"5fd8cf12","postToPoll(uint256)":"6cc3f3c6","posts(uint256)":"0b1e7f83","upVoteComment(uint256)":"138c40d1","upVotePollOption(uint256,string)":"bc8fd685","upVotePost(uint256)":"21828f82"},"id":25}